{"abi":[{"type":"constructor","inputs":[{"name":"_nftContract","type":"address","internalType":"address"}],"stateMutability":"nonpayable"},{"type":"function","name":"addMinter","inputs":[{"name":"_minter","type":"address","internalType":"address"}],"outputs":[],"stateMutability":"nonpayable"},{"type":"function","name":"isMinter","inputs":[{"name":"","type":"address","internalType":"address"}],"outputs":[{"name":"","type":"bool","internalType":"bool"}],"stateMutability":"view"},{"type":"function","name":"mintFlag","inputs":[{"name":"_minter","type":"address","internalType":"address"},{"name":"signature","type":"bytes","internalType":"bytes"}],"outputs":[],"stateMutability":"nonpayable"},{"type":"function","name":"nftContract","inputs":[],"outputs":[{"name":"","type":"address","internalType":"address"}],"stateMutability":"view"},{"type":"function","name":"owner","inputs":[],"outputs":[{"name":"","type":"address","internalType":"address"}],"stateMutability":"view"},{"type":"function","name":"removeMinter","inputs":[{"name":"_minter","type":"address","internalType":"address"}],"outputs":[],"stateMutability":"nonpayable"},{"type":"function","name":"renounceOwnership","inputs":[],"outputs":[],"stateMutability":"nonpayable"},{"type":"function","name":"transferOwnership","inputs":[{"name":"newOwner","type":"address","internalType":"address"}],"outputs":[],"stateMutability":"nonpayable"},{"type":"event","name":"MinterAdded","inputs":[{"name":"minter","type":"address","indexed":true,"internalType":"address"}],"anonymous":false},{"type":"event","name":"MinterRemoved","inputs":[{"name":"minter","type":"address","indexed":true,"internalType":"address"}],"anonymous":false},{"type":"event","name":"OwnershipTransferred","inputs":[{"name":"previousOwner","type":"address","indexed":true,"internalType":"address"},{"name":"newOwner","type":"address","indexed":true,"internalType":"address"}],"anonymous":false},{"type":"error","name":"ECDSAInvalidSignature","inputs":[]},{"type":"error","name":"ECDSAInvalidSignatureLength","inputs":[{"name":"length","type":"uint256","internalType":"uint256"}]},{"type":"error","name":"ECDSAInvalidSignatureS","inputs":[{"name":"s","type":"bytes32","internalType":"bytes32"}]},{"type":"error","name":"OwnableInvalidOwner","inputs":[{"name":"owner","type":"address","internalType":"address"}]},{"type":"error","name":"OwnableUnauthorizedAccount","inputs":[{"name":"account","type":"address","internalType":"address"}]}],"bytecode":{"object":"0x60803460d157601f6107d038819003918201601f19168301916001600160401b0383118484101760d65780849260209460405283398101031260d157516001600160a01b0381169081900360d157331560bb5760008054336001600160a01b0319821681178355604051939290916001600160a01b0316907f8be0079c531659141344cd1fd0a4f28419497f9722a3daafe3b4186f6b6457e09080a3600180546001600160a01b0319169190911790556106e390816100ed8239f35b631e4fbdf760e01b600052600060045260246000fd5b600080fd5b634e487b7160e01b600052604160045260246000fdfe6080604052600436101561001257600080fd5b6000803560e01c80633092afd514610472578063715018a6146104185780638da5cb5b146103f1578063983b2d5614610388578063aa271e1a14610349578063d56d229d14610320578063f2fde38b1461029a5763fb2207021461007557600080fd5b346102975760403660031901126102975761008e6104d8565b6024359067ffffffffffffffff821161027f573660238301121561027f5781600401359167ffffffffffffffff8311610283578390604051936100db6020601f19601f84011601866104f3565b808552366024828401011161027f578060246020930183870137840101526001600160a01b03168083526002602052604083205490919060ff161561024b5761019661019f9160405160208101906040825260126060820152711091c810d5118810da185b1b195b99d9480d60721b60808201523360408201526080815261016460a0826104f3565b5190207f19457468657265756d205369676e6564204d6573736167653a0a3332000000008652601c52603c8520610554565b90929192610590565b6001600160a01b0316036102125760015481906001600160a01b0316803b1561020f578180916044604051809581936340c10f1960e01b8352336004840152600460248401525af18015610202576101f45780f35b6101fd916104f3565b388180f35b50604051903d90823e3d90fd5b50fd5b60405162461bcd60e51b8152602060048201526011602482015270496e76616c6964207369676e617475726560781b6044820152606490fd5b60405162461bcd60e51b815260206004820152600c60248201526b2737ba10309036b4b73a32b960a11b6044820152606490fd5b8280fd5b634e487b7160e01b84526041600452602484fd5b80fd5b5034610297576020366003190112610297576102b46104d8565b6102bc61052b565b6001600160a01b0316801561030c5781546001600160a01b03198116821783556001600160a01b03167f8be0079c531659141344cd1fd0a4f28419497f9722a3daafe3b4186f6b6457e08380a380f35b631e4fbdf760e01b82526004829052602482fd5b50346102975780600319360112610297576001546040516001600160a01b039091168152602090f35b50346102975760203660031901126102975760209060ff906040906001600160a01b036103746104d8565b168152600284522054166040519015158152f35b5034610297576020366003190112610297576103a26104d8565b6103aa61052b565b6001600160a01b0316808252600260205260408220805460ff191660011790557f6ae172837ea30b801fbfcdd4108aa1d5bf8ff775444fd70256b44e6bf3dfc3f68280a280f35b5034610297578060031936011261029757546040516001600160a01b039091168152602090f35b503461029757806003193601126102975761043161052b565b80546001600160a01b03198116825581906001600160a01b03167f8be0079c531659141344cd1fd0a4f28419497f9722a3daafe3b4186f6b6457e08280a380f35b50346102975760203660031901126102975761048c6104d8565b61049461052b565b6001600160a01b0316808252600260205260408220805460ff191690557fe94479a9f7e1952cc78f2d6baab678adc1b772d936c6583def489e524cb666928280a280f35b600435906001600160a01b03821682036104ee57565b600080fd5b90601f8019910116810190811067ffffffffffffffff82111761051557604052565b634e487b7160e01b600052604160045260246000fd5b6000546001600160a01b0316330361053f57565b63118cdaa760e01b6000523360045260246000fd5b81519190604183036105855761057e92506020820151906060604084015193015160001a90610618565b9192909190565b505060009160029190565b919091600481101561060257806105a657509050565b6000600182036105c15763f645eedf60e01b60005260046000fd5b50600281036105df578263fce698f760e01b60005260045260246000fd5b90916003600092146105ef575050565b6335e2f38360e21b825260045260249150fd5b634e487b7160e01b600052602160045260246000fd5b91907f7fffffffffffffffffffffffffffffff5d576e7357a4501ddfe92f46681b20a084116106a1579160209360809260ff60009560405194855216868401526040830152606082015282805260015afa15610695576000516001600160a01b038116156106895790600090600090565b50600090600190600090565b6040513d6000823e3d90fd5b5050506000916003919056fea264697066735822122078a8e92c7a0ab8100724a935e9969041e00f3a5cd52630f657a933889c37545d64736f6c634300081a0033","linkReferences":{}},"methodIdentifiers":{"addMinter(address)":"983b2d56","isMinter(address)":"aa271e1a","mintFlag(address,bytes)":"fb220702","nftContract()":"d56d229d","owner()":"8da5cb5b","removeMinter(address)":"3092afd5","renounceOwnership()":"715018a6","transferOwnership(address)":"f2fde38b"},"id":5}