{"abi":[{"type":"constructor","inputs":[{"name":"_nftContract","type":"address","internalType":"address"}],"stateMutability":"nonpayable"},{"type":"function","name":"nftContract","inputs":[],"outputs":[{"name":"","type":"address","internalType":"address"}],"stateMutability":"view"},{"type":"function","name":"registerTeam","inputs":[{"name":"_name","type":"string","internalType":"string"},{"name":"_teamSize","type":"uint8","internalType":"uint8"}],"outputs":[],"stateMutability":"nonpayable"},{"type":"function","name":"teamInfo","inputs":[{"name":"","type":"address","internalType":"address"}],"outputs":[{"name":"name","type":"string","internalType":"string"},{"name":"teamSize","type":"uint8","internalType":"uint8"}],"stateMutability":"view"},{"type":"event","name":"TeamInit","inputs":[{"name":"team","type":"address","indexed":true,"internalType":"address"},{"name":"name","type":"string","indexed":false,"internalType":"string"},{"name":"teamSize","type":"uint8","indexed":false,"internalType":"uint8"}],"anonymous":false}],"bytecode":{"object":"0x608034607057601f61066938819003918201601f19168301916001600160401b03831184841017607557808492602094604052833981010312607057516001600160a01b03811690819003607057600080546001600160a01b0319169190911790556040516105dd908161008c8239f35b600080fd5b634e487b7160e01b600052604160045260246000fdfe608080604052600436101561001357600080fd5b600090813560e01c908163cb3119bd146103fa57508063d56d229d146103d35763ff967cf61461004257600080fd5b346103d05760403660031901126103d05760043567ffffffffffffffff81116103cc57366023820112156103cc5780600401359067ffffffffffffffff82116103b85782906040519261009f6020601f19601f840116018561051c565b80845236602482840101116103b45780602460209301838601378301015260243560ff81168082036103b0578251156103745780151580610369575b1561031a576040516040810181811067ffffffffffffffff8211176103065760405283815260208101918252338552600160205260408520905180519067ffffffffffffffff82116102f25761013183546104e2565b601f81116102ad575b50602090601f8311600114610220577f44d13ea1219e8d0d9ad42a46fdac7e9ae482b40886fe4a77a034ffc616c0c9129593836101ae969460ff946001948c92610215575b5050600019600383901b1c191690831b1781555b0191511660ff19825416179055604051918291339583610554565b0390a2805481906001600160a01b0316803b15610212578180916044604051809581936340c10f1960e01b8352336004840152600160248401525af18015610205576101f75780f35b6102009161051c565b388180f35b50604051903d90823e3d90fd5b50fd5b01519050388061017f565b8388528188209190601f198416895b81811061029557508460ff946001947f44d13ea1219e8d0d9ad42a46fdac7e9ae482b40886fe4a77a034ffc616c0c9129a98946101ae9a9887951061027c575b505050811b018155610193565b015160001960f88460031b161c1916905538808061026f565b9293602060018192878601518155019501930161022f565b83885260208820601f840160051c810191602085106102e8575b601f0160051c01905b8181106102dd575061013a565b8881556001016102d0565b90915081906102c7565b634e487b7160e01b87526041600452602487fd5b634e487b7160e01b86526041600452602486fd5b60405162461bcd60e51b815260206004820152602160248201527f5465616d2073697a65206d757374206265206265747765656e203120616e64206044820152600d60fa1b6064820152608490fd5b5060048111156100db565b60405162461bcd60e51b81526020600482015260146024820152734e616d652063616e6e6f7420626520656d70747960601b6044820152606490fd5b8380fd5b8280fd5b634e487b7160e01b83526041600452602483fd5b5080fd5b80fd5b50346103d057806003193601126103d057546040516001600160a01b039091168152602090f35b82346103d05760203660031901126103d0576004356001600160a01b038116908190036103cc57815260016020528160408220918083549061043b826104e2565b80855291600181169081156104ba575060011461047c575b8360ff6001876104658488038561051c565b0154169061047860405192839283610554565b0390f35b9150838252602082205b81831061049e57505081016020016104656001610453565b6020919350806001915483858901015201910190918492610486565b60ff191660208087019190915292151560051b85019092019250610465915060019050610453565b90600182811c92168015610512575b60208310146104fc57565b634e487b7160e01b600052602260045260246000fd5b91607f16916104f1565b90601f8019910116810190811067ffffffffffffffff82111761053e57604052565b634e487b7160e01b600052604160045260246000fd5b909291926040825280519081604084015260005b82811061059157505060ff60608260008260209587010152601f80199101168401019416910152565b806020809284010151606082870101520161056856fea2646970667358221220769a9852a6f42b1f82c802967588691c70266fc5d759a2ff7ef24b2ec23a95e064736f6c634300081a0033","linkReferences":{}},"methodIdentifiers":{"nftContract()":"d56d229d","registerTeam(string,uint8)":"ff967cf6","teamInfo(address)":"cb3119bd"},"id":0}