{"abi":[{"type":"constructor","inputs":[{"name":"_owner","type":"address","internalType":"address"}],"stateMutability":"nonpayable"},{"type":"function","name":"claimOwnership","inputs":[],"outputs":[],"stateMutability":"nonpayable"},{"type":"function","name":"owner","inputs":[],"outputs":[{"name":"","type":"address","internalType":"address"}],"stateMutability":"view"},{"type":"event","name":"OwnerChange","inputs":[{"name":"owner","type":"address","indexed":true,"internalType":"address"}],"anonymous":false}],"bytecode":{"object":"0x608034609357601f61018c38819003918201601f19168301916001600160401b03831184841017609857808492602094604052833981010312609357516001600160a01b03811690819003609357600080546001600160a01b0319168217815560405191907fb0e6698704f906b344e27d5c15e5c014e1fb1c960fae1d551b984e55e9ca49d99080a260dd90816100af8239f35b600080fd5b634e487b7160e01b600052604160045260246000fdfe6080806040526004361015601257600080fd5b60003560e01c80634e71e0c814605757638da5cb5b14603057600080fd5b3460525760003660031901126052576000546001600160a01b03168152602090f35b600080fd5b346052576000366003190112605257336bffffffffffffffffffffffff60a01b6000541617600055337fb0e6698704f906b344e27d5c15e5c014e1fb1c960fae1d551b984e55e9ca49d9600080a200fea2646970667358221220e47f0c4d68521e72ee2a65be6f24cbaac51bf86fbf69296fc5c765c9f4efe8ef64736f6c634300081a0033","linkReferences":{}},"methodIdentifiers":{"claimOwnership()":"4e71e0c8","owner()":"8da5cb5b"},"id":9}