{"abi":[{"type":"constructor","inputs":[{"name":"_nftContract","type":"address","internalType":"address"}],"stateMutability":"nonpayable"},{"type":"function","name":"blockNumber","inputs":[{"name":"","type":"address","internalType":"address"}],"outputs":[{"name":"","type":"uint256","internalType":"uint256"}],"stateMutability":"view"},{"type":"function","name":"blocks","inputs":[{"name":"","type":"uint256","internalType":"uint256"}],"outputs":[{"name":"","type":"bool","internalType":"bool"}],"stateMutability":"view"},{"type":"function","name":"futureBlocks","inputs":[],"outputs":[{"name":"","type":"uint256","internalType":"uint256"}],"stateMutability":"view"},{"type":"function","name":"mintFlag","inputs":[{"name":"rlpBytes","type":"bytes","internalType":"bytes"}],"outputs":[],"stateMutability":"nonpayable"},{"type":"function","name":"nftContract","inputs":[],"outputs":[{"name":"","type":"address","internalType":"address"}],"stateMutability":"view"},{"type":"function","name":"preMintFlag","inputs":[],"outputs":[],"stateMutability":"nonpayable"}],"bytecode":{"object":"0x608034607057601f6109e938819003918201601f19168301916001600160401b03831184841017607557808492602094604052833981010312607057516001600160a01b03811690819003607057600080546001600160a01b03191691909117905560405161095d908161008c8239f35b600080fd5b634e487b7160e01b600052604160045260246000fdfe6080604052600436101561001257600080fd5b60003560e01c806310f081ec146100775780634f359a37146100725780638c63f32a1461006d5780639e5a1ac014610068578063d56d229d146100635763f25b3f991461005e57600080fd5b61028d565b610264565b6101cb565b61018d565b610171565b346100fc5760203660031901126100fc5760043567ffffffffffffffff81116100fc57366023820112156100fc57806004013567ffffffffffffffff811161010157604051906100d1601f8201601f191660200183610133565b80825236602482850101116100fc5760208160009260246100fa960183860137830101526104bb565b005b600080fd5b634e487b7160e01b600052604160045260246000fd5b6040810190811067ffffffffffffffff82111761010157604052565b90601f8019910116810190811067ffffffffffffffff82111761010157604052565b60405190610164604083610133565b565b60009103126100fc57565b346100fc5760003660031901126100fc57602060405160028152f35b346100fc5760203660031901126100fc576004356001600160a01b038116908190036100fc5760005260016020526020604060002054604051908152f35b346100fc5760003660031901126100fc5743600052600260205260ff6040600020541661022a57610216610209436000526002602052604060002090565b805460ff19166001179055565b336000908152600160205260409020439055005b60405162461bcd60e51b8152602060048201526012602482015271109b1bd8dac8185b1c9958591e481d5cd95960721b6044820152606490fd5b346100fc5760003660031901126100fc576000546040516001600160a01b039091168152602090f35b346100fc5760203660031901126100fc576004356000526002602052602060ff604060002054166040519015158152f35b156102c557565b60405162461bcd60e51b8152602060048201526011602482015270141c99535a5b9d119b1859c8199a5c9cdd607a1b6044820152606490fd5b634e487b7160e01b600052601160045260246000fd5b906002820180921161032257565b6102fe565b90610100820180921161032257565b906001820180921161032257565b9190820180921161032257565b1561035857565b60405162461bcd60e51b815260206004820152601960248201527f46757475726520626c6f636b206e6f7420726561636865642e000000000000006044820152606490fd5b156103a457565b60405162461bcd60e51b815260206004820152602760248201527f596f75206d697373207468652077696e646f772e205072654d696e74466c61676044820152661030b3b0b4b71760c91b6064820152608490fd5b80516008101561040a576101200190565b634e487b7160e01b600052603260045260246000fd5b805182101561040a5760209160051b010190565b1561043b57565b60405162461bcd60e51b815260206004820152600b60248201526a57726f6e6720626c6f636b60a81b6044820152606490fd5b1561047557565b60405162461bcd60e51b81526020600482015260126024820152712bb937b73390313637b1b5903432b0b232b960711b6044820152606490fd5b6040513d6000823e3d90fd5b33600090815260016020526040902061058491906104db905415156102be565b336000908152600160205260409020610501906104f9905b54610314565b431015610351565b33600090815260016020526040902061052d9061052690610521906104f3565b610327565b431061039d565b61054f61054961054461053f84610617565b610655565b6103f9565b51610722565b3360009081526001602052604090209091906105759061056e906104f3565b8314610434565b6020815191012090401461046e565b6000546105a79061059b906001600160a01b031681565b6001600160a01b031690565b803b156100fc576040516340c10f1960e01b8152336004820152600c6024820152906000908290604490829084905af180156105f9576105e45750565b806105f3600061016493610133565b80610166565b6104af565b6040519061060b82610117565b60006020838281520152565b61061f6105fe565b5060208151916040519261063284610117565b835201602082015290565b67ffffffffffffffff81116101015760051b60200190565b61065e81610781565b156100fc5761066c816107a8565b6106758161063d565b916106836040519384610133565b818352601f196106928361063d565b0160005b81811061070b57505060206106b69101516106b081610838565b90610344565b6000905b8282106106c75750505090565b610703816106d66001936108a8565b906106df610155565b8281528160208201526106f28689610420565b526106fd8588610420565b50610344565b9101906106ba565b6020906107166105fe565b82828801015201610696565b80518015159081610775575b50156100fc5760208101906107438251610838565b915190828201809211610322575191820391821161032257519060208110610769575090565b6020036101000a900490565b6021915011153861072e565b8051156107a257602060c09101515160001a1061079d57600190565b600090565b50600090565b8051156107a257600090602081019081516107c281610838565b8101809111610322579151905181018091116103225791905b8281106107e85750905090565b6107f1816108a8565b81018091116103225790600019811461032257600101906107db565b60bf1981019190821161032257565b607f1981019190821161032257565b9190820391821161032257565b5160001a608081101561084b5750600090565b60b881108015610892575b156108615750600190565b60c0811015610883576108809061087b9060b75b9061082b565b610336565b90565b6108809061087b9060f7610875565b5060c08110158015610856575060f88110610856565b805160001a9060808210156108be575050600190565b60b88210156108d4575061087b6108809161081c565b60c08210156108f75760010151602082900360b7016101000a90040160b5190190565b60f882101561090d575061087b6108809161080d565b60010151602082900360f7016101000a90040160f519019056fea2646970667358221220dbb4df4fe40bbd7cff1ee81c4b922469f878e3b178f71c43385a2c76042a6ee364736f6c634300081a0033","linkReferences":{}},"methodIdentifiers":{"blockNumber(address)":"8c63f32a","blocks(uint256)":"f25b3f99","futureBlocks()":"4f359a37","mintFlag(bytes)":"10f081ec","nftContract()":"d56d229d","preMintFlag()":"9e5a1ac0"},"id":2}