{"abi":[{"type":"constructor","inputs":[{"name":"_initialOwner","type":"address","internalType":"address"}],"stateMutability":"nonpayable"},{"type":"function","name":"addAllowedMinter","inputs":[{"name":"minter","type":"address","internalType":"address"}],"outputs":[],"stateMutability":"nonpayable"},{"type":"function","name":"addAllowedMinterMultiple","inputs":[{"name":"minters","type":"address[]","internalType":"address[]"}],"outputs":[],"stateMutability":"nonpayable"},{"type":"function","name":"allowedMinters","inputs":[{"name":"","type":"address","internalType":"address"}],"outputs":[{"name":"","type":"bool","internalType":"bool"}],"stateMutability":"view"},{"type":"function","name":"approve","inputs":[{"name":"to","type":"address","internalType":"address"},{"name":"tokenId","type":"uint256","internalType":"uint256"}],"outputs":[],"stateMutability":"nonpayable"},{"type":"function","name":"balanceOf","inputs":[{"name":"owner","type":"address","internalType":"address"}],"outputs":[{"name":"","type":"uint256","internalType":"uint256"}],"stateMutability":"view"},{"type":"function","name":"disable","inputs":[],"outputs":[],"stateMutability":"nonpayable"},{"type":"function","name":"enable","inputs":[],"outputs":[],"stateMutability":"nonpayable"},{"type":"function","name":"enabled","inputs":[],"outputs":[{"name":"","type":"bool","internalType":"bool"}],"stateMutability":"view"},{"type":"function","name":"enabledAt","inputs":[],"outputs":[{"name":"","type":"uint256","internalType":"uint256"}],"stateMutability":"view"},{"type":"function","name":"flagColors","inputs":[{"name":"","type":"uint256","internalType":"uint256"}],"outputs":[{"name":"","type":"string","internalType":"string"}],"stateMutability":"view"},{"type":"function","name":"getApproved","inputs":[{"name":"tokenId","type":"uint256","internalType":"uint256"}],"outputs":[{"name":"","type":"address","internalType":"address"}],"stateMutability":"view"},{"type":"function","name":"hasMinted","inputs":[{"name":"","type":"address","internalType":"address"},{"name":"","type":"uint256","internalType":"uint256"}],"outputs":[{"name":"","type":"bool","internalType":"bool"}],"stateMutability":"view"},{"type":"function","name":"isApprovedForAll","inputs":[{"name":"owner","type":"address","internalType":"address"},{"name":"operator","type":"address","internalType":"address"}],"outputs":[{"name":"","type":"bool","internalType":"bool"}],"stateMutability":"view"},{"type":"function","name":"mint","inputs":[{"name":"_recipient","type":"address","internalType":"address"},{"name":"_challengeId","type":"uint256","internalType":"uint256"}],"outputs":[],"stateMutability":"nonpayable"},{"type":"function","name":"name","inputs":[],"outputs":[{"name":"","type":"string","internalType":"string"}],"stateMutability":"view"},{"type":"function","name":"onERC721Received","inputs":[{"name":"","type":"address","internalType":"address"},{"name":"from","type":"address","internalType":"address"},{"name":"tokenId","type":"uint256","internalType":"uint256"},{"name":"data","type":"bytes","internalType":"bytes"}],"outputs":[{"name":"","type":"bytes4","internalType":"bytes4"}],"stateMutability":"nonpayable"},{"type":"function","name":"owner","inputs":[],"outputs":[{"name":"","type":"address","internalType":"address"}],"stateMutability":"view"},{"type":"function","name":"ownerOf","inputs":[{"name":"tokenId","type":"uint256","internalType":"uint256"}],"outputs":[{"name":"","type":"address","internalType":"address"}],"stateMutability":"view"},{"type":"function","name":"removeAllowedMinter","inputs":[{"name":"minter","type":"address","internalType":"address"}],"outputs":[],"stateMutability":"nonpayable"},{"type":"function","name":"renounceOwnership","inputs":[],"outputs":[],"stateMutability":"nonpayable"},{"type":"function","name":"safeTransferFrom","inputs":[{"name":"from","type":"address","internalType":"address"},{"name":"to","type":"address","internalType":"address"},{"name":"tokenId","type":"uint256","internalType":"uint256"}],"outputs":[],"stateMutability":"nonpayable"},{"type":"function","name":"safeTransferFrom","inputs":[{"name":"from","type":"address","internalType":"address"},{"name":"to","type":"address","internalType":"address"},{"name":"tokenId","type":"uint256","internalType":"uint256"},{"name":"data","type":"bytes","internalType":"bytes"}],"outputs":[],"stateMutability":"nonpayable"},{"type":"function","name":"setApprovalForAll","inputs":[{"name":"operator","type":"address","internalType":"address"},{"name":"approved","type":"bool","internalType":"bool"}],"outputs":[],"stateMutability":"nonpayable"},{"type":"function","name":"supportsInterface","inputs":[{"name":"interfaceId","type":"bytes4","internalType":"bytes4"}],"outputs":[{"name":"","type":"bool","internalType":"bool"}],"stateMutability":"view"},{"type":"function","name":"symbol","inputs":[],"outputs":[{"name":"","type":"string","internalType":"string"}],"stateMutability":"view"},{"type":"function","name":"tokenIdCounter","inputs":[],"outputs":[{"name":"","type":"uint256","internalType":"uint256"}],"stateMutability":"view"},{"type":"function","name":"tokenIdToChallengeId","inputs":[{"name":"","type":"uint256","internalType":"uint256"}],"outputs":[{"name":"","type":"uint256","internalType":"uint256"}],"stateMutability":"view"},{"type":"function","name":"tokenURI","inputs":[{"name":"tokenId","type":"uint256","internalType":"uint256"}],"outputs":[{"name":"","type":"string","internalType":"string"}],"stateMutability":"view"},{"type":"function","name":"transferFrom","inputs":[{"name":"from","type":"address","internalType":"address"},{"name":"to","type":"address","internalType":"address"},{"name":"tokenId","type":"uint256","internalType":"uint256"}],"outputs":[],"stateMutability":"nonpayable"},{"type":"function","name":"transferOwnership","inputs":[{"name":"newOwner","type":"address","internalType":"address"}],"outputs":[],"stateMutability":"nonpayable"},{"type":"event","name":"Approval","inputs":[{"name":"owner","type":"address","indexed":true,"internalType":"address"},{"name":"approved","type":"address","indexed":true,"internalType":"address"},{"name":"tokenId","type":"uint256","indexed":true,"internalType":"uint256"}],"anonymous":false},{"type":"event","name":"ApprovalForAll","inputs":[{"name":"owner","type":"address","indexed":true,"internalType":"address"},{"name":"operator","type":"address","indexed":true,"internalType":"address"},{"name":"approved","type":"bool","indexed":false,"internalType":"bool"}],"anonymous":false},{"type":"event","name":"Disabled","inputs":[{"name":"caller","type":"address","indexed":true,"internalType":"address"}],"anonymous":false},{"type":"event","name":"Enabled","inputs":[{"name":"caller","type":"address","indexed":true,"internalType":"address"}],"anonymous":false},{"type":"event","name":"FlagMinted","inputs":[{"name":"minter","type":"address","indexed":true,"internalType":"address"},{"name":"tokenId","type":"uint256","indexed":true,"internalType":"uint256"},{"name":"challengeId","type":"uint256","indexed":true,"internalType":"uint256"}],"anonymous":false},{"type":"event","name":"OwnershipTransferred","inputs":[{"name":"previousOwner","type":"address","indexed":true,"internalType":"address"},{"name":"newOwner","type":"address","indexed":true,"internalType":"address"}],"anonymous":false},{"type":"event","name":"Transfer","inputs":[{"name":"from","type":"address","indexed":true,"internalType":"address"},{"name":"to","type":"address","indexed":true,"internalType":"address"},{"name":"tokenId","type":"uint256","indexed":true,"internalType":"uint256"}],"anonymous":false},{"type":"error","name":"ERC721IncorrectOwner","inputs":[{"name":"sender","type":"address","internalType":"address"},{"name":"tokenId","type":"uint256","internalType":"uint256"},{"name":"owner","type":"address","internalType":"address"}]},{"type":"error","name":"ERC721InsufficientApproval","inputs":[{"name":"operator","type":"address","internalType":"address"},{"name":"tokenId","type":"uint256","internalType":"uint256"}]},{"type":"error","name":"ERC721InvalidApprover","inputs":[{"name":"approver","type":"address","internalType":"address"}]},{"type":"error","name":"ERC721InvalidOperator","inputs":[{"name":"operator","type":"address","internalType":"address"}]},{"type":"error","name":"ERC721InvalidOwner","inputs":[{"name":"owner","type":"address","internalType":"address"}]},{"type":"error","name":"ERC721InvalidReceiver","inputs":[{"name":"receiver","type":"address","internalType":"address"}]},{"type":"error","name":"ERC721InvalidSender","inputs":[{"name":"sender","type":"address","internalType":"address"}]},{"type":"error","name":"ERC721NonexistentToken","inputs":[{"name":"tokenId","type":"uint256","internalType":"uint256"}]},{"type":"error","name":"OwnableInvalidOwner","inputs":[{"name":"owner","type":"address","internalType":"address"}]},{"type":"error","name":"OwnableUnauthorizedAccount","inputs":[{"name":"account","type":"address","internalType":"address"}]}],"bytecode":{"object":"0x608060405234610681576149266020813803918261001c81610686565b93849283398101031261068157516001600160a01b03811690819003610681576100466040610686565b906006825265212396a1aa2360d11b60208301526100646040610686565b600381526221aa2360e91b602082015282519091906001600160401b0381116104ed576100926000546106ab565b601f8111610633575b506020601f82116001146105cd5781906100ce939495600092610438575b50508160011b916000199060031b1c19161790565b6000555b81516001600160401b0381116104ed576100ed6001546106ab565b601f811161057e575b50602092601f821160011461051957610128929382916000926104385750508160011b916000199060031b1c19161790565b6001555b801561050357600680546001600160a01b0319811683179091556001600160a01b03167f8be0079c531659141344cd1fd0a4f28419497f9722a3daafe3b4186f6b6457e0600080a3600b805460ff191690556040516101e081016001600160401b038111828210176104ed576040526101a56040610686565b60078152662334623535363360c81b602082015281526101c56040610686565b600781526611b231991b191b60c91b602082015260208201526101e86040610686565b60078152662365613538306360c81b6020820152604082015261020b6040610686565b600781526611b21c9b9b981b60c91b6020820152606082015261022e6040610686565b600781526608d8d84e184c0d60ca1b602082015260808201526102516040610686565b600781526608cd8d584ccc1960ca1b602082015260a08201526102746040610686565b60078152662331366133346160c81b602082015260c08201526102976040610686565b60078152662330353936363960c81b602082015260e08201526102ba6040610686565b600781526604660c8726870760cb1b60208201526101008201526102de6040610686565b600781526611981c1c98b11960c91b60208201526101208201526103026040610686565b60078152662330323834633760c81b60208201526101408201526103266040610686565b600781526611991a9b19b2b160c91b602082015261016082015261034a6040610686565b60078152662334663436653560c81b602082015261018082015261036e6040610686565b600781526608cdd8ccd8595960ca1b60208201526101a08201526103926040610686565b60078152662339333333656160c81b60208201526101c0820152600d906000905b600f82106103ca5760405161422990816106fd8239f35b80518051906001600160401b0382116104ed576103e785546106ab565b601f81116104b0575b50602090601f83116001146104435792610429836001959460209487966000926104385750508160011b916000199060031b1c19161790565b86555b019301910190916103b3565b0151905038806100b9565b90601f1983169186600052816000209260005b818110610498575093602093600196938796938388951061047f575b505050811b01865561042c565b015160001960f88460031b161c19169055388080610472565b82840151855560019094019360209384019301610456565b6104dd90866000526020600020601f850160051c810191602086106104e3575b601f0160051c01906106e5565b386103f0565b90915081906104d0565b634e487b7160e01b600052604160045260246000fd5b631e4fbdf760e01b600052600060045260246000fd5b601f198216936001600052806000209160005b868110610566575083600195961061054d575b505050811b0160015561012c565b015160001960f88460031b161c1916905538808061053f565b9192602060018192868501518155019401920161052c565b60016000526105c7907fb10e2d527612073b26eecdfd717e6a320cf44b4afac2b0732d9fcbe2b7fa0cf6601f840160051c810191602085106104e357601f0160051c01906106e5565b386100f6565b601f1982169060008052806000209160005b81811061061b57509583600195969710610602575b505050811b016000556100d2565b015160001960f88460031b161c191690553880806105f4565b9192602060018192868b0151815501940192016105df565b6000805261067b907f290decd9548b62a8d60345a988386fc84ba6bc95484008f6362f93160ef3e563601f840160051c810191602085106104e357601f0160051c01906106e5565b3861009b565b600080fd5b6040519190601f01601f191682016001600160401b038111838210176104ed57604052565b90600182811c921680156106db575b60208310146106c557565b634e487b7160e01b600052602260045260246000fd5b91607f16916106ba565b8181106106f0575050565b600081556001016106e556fe6080604052600436101561001257600080fd5b60003560e01c806301ffc9a7146101f757806306fdde03146101f2578063081812fc146101ed578063095ea7b3146101e8578063150b7a02146101e3578063238dafe0146101de57806323b872dd146101d95780632f2770db146101d457806340c10f19146101cf578063423afa66146101ca57806342842e0e146101c5578063488603df146101c05780636352211e146101bb57806370a08231146101b6578063715018a6146101b157806380960a4d146101ac5780638da5cb5b146101a75780638f7e9c04146101a257806395d89b411461019d57806398bdf6f514610198578063a22cb46514610193578063a3907d711461018e578063b76ba2e414610189578063b88d4fde14610184578063bad39b961461017f578063c87b56dd1461017a578063e320a05b14610175578063e985e9c514610170578063f2fde38b1461016b5763f8f1147d1461016657600080fd5b6110a8565b61101a565b610fb2565b610f86565b610d5f565b610d19565b610ca6565b610bf6565b610ba4565b610ae7565b610ac9565b610a11565b6109f3565b6109ca565b61098a565b610822565b6107c8565b610798565b61074f565b610738565b6106f6565b61067b565b610630565b610619565b6105ca565b610533565b61041f565b6103d0565b6102dd565b610213565b6001600160e01b031981160361020e57565b600080fd5b3461020e57602036600319011261020e576020600435610232816101fc565b63ffffffff60e01b166380ac58cd60e01b8114908115610270575b811561025f575b506040519015158152f35b6301ffc9a760e01b14905038610254565b635b5e139f60e01b8114915061024d565b60005b8381106102945750506000910152565b8181015183820152602001610284565b906020916102bd81518092818552858086019101610281565b601f01601f1916010190565b9060206102da9281815201906102a4565b90565b3461020e57600036600319011261020e57604051600080548060011c90600181169081156103c6575b6020831082146103b25782855260208501919081156103995750600114610348575b61034484610338818603826108ab565b604051918291826102c9565b0390f35b60008080529250907f290decd9548b62a8d60345a988386fc84ba6bc95484008f6362f93160ef3e5635b8184106103855750500161033882610328565b805484840152602090930192600101610372565b60ff191682525090151560051b01905061033882610328565b634e487b7160e01b84526022600452602484fd5b91607f1691610306565b3461020e57602036600319011261020e576004356103ed816114c2565b506000526004602052602060018060a01b0360406000205416604051908152f35b6001600160a01b0381160361020e57565b3461020e57604036600319011261020e5760043561043c8161040e565b60243590610449826114c2565b33151580610520575b806104de575b6104c9576104c7926104a89181906001600160a01b0385811691167f8c5be1e5ebec7d5bd14f71427d1e84f3dd0314c0f7b2291e5b200ac8c7c3b925600080a46000526004602052604060002090565b80546001600160a01b0319166001600160a01b03909216919091179055565b005b63a9fbf51f60e01b6000523360045260246000fd5b5060ff610518336105018460018060a01b03166000526005602052604060002090565b9060018060a01b0316600052602052604060002090565b541615610458565b506001600160a01b038116331415610452565b3461020e57608036600319011261020e5761054f60043561040e565b60243561055b8161040e565b604435906064359067ffffffffffffffff821161020e573660238301121561020e5781600401359067ffffffffffffffff821161020e57366024838501011161020e576103449360246105af94019161121c565b6040516001600160e01b031990911681529081906020820190565b3461020e57600036600319011261020e57602060ff600b54166040519015158152f35b606090600319011261020e576004356106058161040e565b906024356106128161040e565b9060443590565b3461020e576104c761062a366105ed565b916112fc565b3461020e57600036600319011261020e57610649611787565b60ff19600b5416600b55337ff54453d15e2e6aee566733e6da03165ea58500408e802e05aa4e75f2408f59fe600080a2005b3461020e57604036600319011261020e576004356106988161040e565b60243533600052600760205260ff60406000205416156106bb576104c79161173b565b60405162461bcd60e51b8152602060048201526013602482015272139bdd08185b1b1bddd959081d1bc81b5a5b9d606a1b6044820152606490fd5b3461020e57602036600319011261020e576004356107138161040e565b60018060a01b03166000526007602052602060ff604060002054166040519015158152f35b3461020e576104c7610749366105ed565b91611437565b3461020e57602036600319011261020e5760043561076c8161040e565b610774611787565b6001600160a01b03166000908152600760205260409020805460ff19166001179055005b3461020e57602036600319011261020e5760206107b66004356114c2565b6040516001600160a01b039091168152f35b3461020e57602036600319011261020e576004356107e58161040e565b6001600160a01b0316801561080c5760005260036020526020604060002054604051908152f35b6322718ad960e21b600052600060045260246000fd5b3461020e57600036600319011261020e5761083b611787565b600680546001600160a01b031981169091556000906001600160a01b03167f8be0079c531659141344cd1fd0a4f28419497f9722a3daafe3b4186f6b6457e08280a3005b634e487b7160e01b600052603260045260246000fd5b634e487b7160e01b600052604160045260246000fd5b90601f8019910116810190811067ffffffffffffffff8211176108cd57604052565b610895565b9060405191600081548060011c9260018216918215610980575b6020851083146103b25784875286939260208501929181156109635750600114610921575b505061091f925003836108ab565b565b610932919250600052602060002090565b906000915b84831061094c575061091f9350013880610911565b805482840152869350602090920191600101610937565b91505061091f9491925060ff19168252151560051b013880610911565b93607f16936108ec565b3461020e57602036600319011261020e57600435600f81101561020e576109b661034491600d016108d2565b6040519182916020835260208301906102a4565b3461020e57600036600319011261020e576006546040516001600160a01b039091168152602090f35b3461020e57600036600319011261020e576020600c54604051908152f35b3461020e57600036600319011261020e5760405160006001548060011c9060018116908115610abf575b6020831082146103b25782855260208501919081156103995750600114610a6c5761034484610338818603826108ab565b600160009081529250907fb10e2d527612073b26eecdfd717e6a320cf44b4afac2b0732d9fcbe2b7fa0cf65b818410610aab5750500161033882610328565b805484840152602090930192600101610a98565b91607f1691610a3b565b3461020e57600036600319011261020e576020600854604051908152f35b3461020e57604036600319011261020e57600435610b048161040e565b602435908115159081830361020e576001600160a01b038116928315610b8f57610b50610b619233600052600560205260406000209060018060a01b0316600052602052604060002090565b9060ff801983541691151516179055565b6040519081527f17307eab39ab6107e8899845ad3d59bd9653f200f220920489ca2b5937696c3160203392a3005b83630b61174360e31b60005260045260246000fd5b3461020e57600036600319011261020e57610bbd611787565b600160ff19600b541617600b5542600c55337f44bcce471802f9158ee4390426e4a931d186757cc50d302f6747504c17516d12600080a2005b3461020e57602036600319011261020e5760043567ffffffffffffffff811161020e573660238201121561020e57806004013567ffffffffffffffff811161020e573660248260051b8401011161020e5760246104c7920161145b565b67ffffffffffffffff81116108cd57601f01601f191660200190565b929192610c7b82610c53565b91610c8960405193846108ab565b82948184528183011161020e578281602093846000960137010152565b3461020e57608036600319011261020e57600435610cc38161040e565b60243590610cd08261040e565b6044356064359267ffffffffffffffff841161020e573660238501121561020e57610d086104c7943690602481600401359101610c6f565b92610d148383836112fc565b611916565b3461020e57602036600319011261020e57600435610d368161040e565b610d3e611787565b6001600160a01b03166000908152600760205260409020805460ff19169055005b3461020e57602036600319011261020e576004356001600160a01b03610d84826114c2565b1615610f2957610ee1610338610ef4610e1d610eef85610ee1610ed3610dac610344996119b1565b610e17610e47610e3a610de4610dde610dd8610dd28a6000526009602052604060002090565b54613d2b565b98613d2b565b94613f0a565b93610e176040519a8b99610e1760208c01601590747b226e616d65223a20224368616c6c656e6765202360581b81520190565b906114ab565b70010333630b390143a37b5b2b724b2101e9607d1b815260110190565b602960f81b815260010190565b7f222c20226465736372697074696f6e223a202241204e465420666c616720666f81527f722074686520427569646c477569646c2043544620617420446576636f6e205360208201527f45412032303234222c2022696d616765223a2022646174613a696d6167652f7360408201526d1d99cade1b5b0ed8985cd94d8d0b60921b6060820152606e0190565b61227d60f01b815260020190565b03601f1981018352826108ab565b613f0a565b6040517f646174613a6170706c69636174696f6e2f6a736f6e3b6261736536342c0000006020820152928391603d8301610e17565b60405162461bcd60e51b815260206004820152602f60248201527f4552433732314d657461646174613a2055524920717565727920666f72206e6f60448201526e3732bc34b9ba32b73a103a37b5b2b760891b6064820152608490fd5b3461020e57602036600319011261020e5760043560005260096020526020604060002054604051908152f35b3461020e57604036600319011261020e57602060ff61100e600435610fd68161040e565b60243590610fe38261040e565b60018060a01b03166000526005845260406000209060018060a01b0316600052602052604060002090565b54166040519015158152f35b3461020e57602036600319011261020e576004356110378161040e565b61103f611787565b6001600160a01b0316801561109257600680546001600160a01b0319811683179091556001600160a01b03167f8be0079c531659141344cd1fd0a4f28419497f9722a3daafe3b4186f6b6457e0600080a3005b631e4fbdf760e01b600052600060045260246000fd5b3461020e57604036600319011261020e576004356110c58161040e565b6024359060018060a01b0316600052600a602052604060002090600052602052602060ff604060002054166040519015158152f35b1561110157565b60405162461bcd60e51b815260206004820152602a60248201527f6f6e6c79207468697320636f6e74726163742063616e2063616c6c20746869736044820152692066756e6374696f6e2160b01b6064820152608490fd5b1561116057565b60405162461bcd60e51b815260206004820152600a6024820152694e6f74206f776e65722160b01b6044820152606490fd5b1561119957565b60405162461bcd60e51b81526020600482015260166024820152754e6f742074686520726967687420746f6b656e20312160501b6044820152606490fd5b156111de57565b60405162461bcd60e51b81526020600482015260166024820152754e6f742074686520726967687420746f6b656e20392160501b6044820152606490fd5b929161122a91923691610c6f565b9160208351106112bf576112a5600961129e60206112b496015161124f3033146110fa565b61126e61125b826114c2565b6001600160a01b03878116911614611159565b61128e6001611287886000526009602052604060002090565b5414611192565b6000526009602052604060002090565b54146111d7565b6112ae816115d6565b30611437565b630a85bd0160e11b90565b60405162461bcd60e51b8152602060048201526015602482015274746f55696e743235365f6f75744f66426f756e647360581b6044820152606490fd5b9091906001600160a01b038316801561140c5760008381526002602052604090205483906001600160a01b031691336113fc575b6001600160a01b0383169561137890876113ce575b6001600160a01b0381166000908152600360205260409020600181540190556104a8846000526002602052604060002090565b857fddf252ad1be2c89b69c2b068fc378daa952ba7f163c4a11628f55a4df523b3ef600080a4506001600160a01b03168083036113b457505050565b6364283d7b60e01b60005260045260245260445260646000fd5b6113d784613ff4565b6001600160a01b03851660009081526003602052604090208054600019019055611345565b611407823385614112565b611330565b633250574960e11b600052600060045260246000fd5b604051906114316020836108ab565b60008252565b909161091f926040519261144c6020856108ab565b60008452610d148383836112fc565b91611464611787565b60005b828110156114a557600190604060008260051b8701356114868161040e565b848060a01b031681526007602052208260ff1982541617905501611467565b50915050565b906114be60209282815194859201610281565b0190565b6000818152600260205260409020546001600160a01b03169081156114e5575090565b637e27328960e01b60005260045260246000fd5b1561150057565b60405162461bcd60e51b815260206004820152601e60248201527f5465616d2061646472657373206973206e6f74207265676973746572656400006044820152606490fd5b1561154c57565b60405162461bcd60e51b815260206004820152603260248201527f5465616d20616464726573732068617320616c7265616479206d696e74656420604482015271666f722074686973206368616c6c656e676560701b6064820152608490fd5b634e487b7160e01b600052601160045260246000fd5b60001981146115d15760010190565b6115ac565b60ff600b5416156116fd57600a906116256116206116196116098460018060a01b0316600052600a602052604060002090565b6001600052602052604060002090565b5460ff1690565b6114f9565b61166661166161165d6116198561164e8660018060a01b0316600052600a602052604060002090565b90600052602052604060002090565b1590565b611545565b6116796116746008546115c2565b600855565b600854906116878282614018565b8261169c836000526009602052604060002090565b556116cd6116c08461164e8460018060a01b0316600052600a602052604060002090565b805460ff19166001179055565b6001600160a01b03167fef633ead5fa8a224bb818380531535925c31239123ac0a6f54c9135616f05475600080a4565b60405162461bcd60e51b8152602060048201526016602482015275135a5b9d1a5b99c81a5cc81b9bdd08195b98589b195960521b6044820152606490fd5b60ff600b5416156116fd5760018214801561175a575b611625906114f9565b506116256117806116196116098460018060a01b0316600052600a602052604060002090565b9050611751565b6006546001600160a01b0316330361179b57565b63118cdaa760e01b6000523360045260246000fd5b9081602091031261020e57516102da816101fc565b6001600160a01b0391821681529116602082015260408101919091526080606082018190526102da929101906102a4565b3d15611821573d9061180782610c53565b9161181560405193846108ab565b82523d6000602084013e565b606090565b9190823b61183357505050565b604051630a85bd0160e11b815291602091839182916118599190600033600486016117c5565b038160006001600160a01b0387165af1600091816118e5575b506118ae57506118806117f6565b80519190826118a757633250574960e11b6000526001600160a01b03821660045260246000fd5b9050602001fd5b6001600160e01b03191663757a42ff60e11b016118c85750565b633250574960e11b6000526001600160a01b031660045260246000fd5b61190891925060203d60201161190f575b61190081836108ab565b8101906117b0565b9038611872565b503d6118f6565b909291833b611926575b50505050565b6020916119486040519485938493630a85bd0160e11b855233600486016117c5565b038160006001600160a01b0387165af160009181611990575b5061196f57506118806117f6565b6001600160e01b03191663757a42ff60e11b016118c8575038808080611920565b6119aa91925060203d60201161190f5761190081836108ab565b9038611961565b6000526009602052604060002054600f811015613cf4576102da81610ee16125ac6125986119ed6119e761248897600d016108d2565b94613d2b565b610e1761256f6040519889977f3c7376672066696c6c3d226e6f6e652220786d6c6e733d22687474703a2f2f7760208a01527f77772e77332e6f72672f323030302f737667222076696577426f783d2230203060408a01527f2034363120353733223e3c706174682066696c6c2d72756c653d226576656e6f60608a01527f64642220636c69702d72756c653d226576656e6f64642220643d226d3239322e60808a01527f3239362031312e3338382d33342e3737342d392e3331372d322e303720372e3760a08a01527f32372d372e3732382d322e30372d362e3938382032362e303820372e3732382060c08a01527f322e30372d36372e383131203235332e30373320372e37323720322e3037203260e08a01527f392e3736352d3131312e3038312031392e33313820352e3137362d32392e37366101008a01527f34203131312e30383120372e37323720322e3037312033312e3833352d3131386101208a01527f2e38303920382e36393320322e33332d322e303720372e3732372032352e31316101408a01527f3420362e37323920322e3037312d372e3732372032342e31343820362e3437206101608a01527f322e30372d372e3732372031372e33383720342e36353920322e30372d372e376101808a01527f32382033322e38343220382e382d322e30373120372e3732372031372e3338376101a08a01527f20342e3635392d322e30373120372e3732382033312e38373620382e353431206101c08a01527f362e3732392d32352e3131342d372e3732372d322e30373120382e382d33322e6101e08a01527f3834312d372e3732382d322e30373120362e3938382d32362e303820372e37326102008a01527f3820322e30373120342e3931372d31382e3335332031302e36323620322e38346102208a01527f3720322e30372d372e37323720372e37323820322e303720342e342d31362e346102408a01527f322d31362e3432312d342e3420322e30372d372e3732382d31372e3338362d346102608a01527f2e36353920322e30372d372e3732372d34392e3236322d31332e322d322e30376102808a01527f3120372e3732382d32362e30382d362e3938392d322e303720372e3732382d316102a08a01527f362e3432312d342e342d322e303720372e3732372d31372e3338372d342e36356102c08a01527f3920322e3037312d372e3732372d32352e3131352d362e373320322e3037312d6102e08a01527f372e37323720372e37323720322e30373120362e3938392d32362e30382d372e6103008a01527f3732382d322e303720322e3037312d372e3732385a6d2d322e30373120372e376103208a01527f32372d362e3938382032362e30382d33342e3737332d392e33313720362e39386103408a01527f382d32362e30382033342e37373320392e3331375a4d3330342e32312036372e6103608a01527f33386c2d32352e3131342d362e3732392d32392e373634203131312e303832206103808a01527f382e36393320322e3332392d322e30373120372e3732382032352e31313520366103a08a01527f2e37323920322e30372d372e3732382032342e31343820362e34373120322e306103c08a01527f37312d372e3732382031372e33383620342e36353920322e3037312d372e37326103e08a01527f372033322e38343120382e382d322e303720372e3732372031372e33383720346104008a01527f2e3635392d322e30373120372e3732372032342e31343820362e34373120342e6104208a01527f3635392d31372e3338372d372e3732372d322e30373120382e3739392d33322e6104408a01527f3834312d372e3732372d322e30373120362e3938382d32362e303820372e37326104608a01527f3720322e30373120342e3931382d31382e33353320372e37323720322e3037316104808a01527f20322e3037312d372e3732372031302e36323520322e38343720322e33332d386104a08a01527f2e3639342d382e3639342d322e33323920322e3037312d372e3732384c3431356104c08a01527f2e34332038382e396c322e3037312d372e3732382d34392e3236332d31332e326104e08a01527f2d322e303720372e3732382d32362e30382d362e3938382d322e30373120372e6105008a01527f3732372d31362e34322d342e342d322e30373120372e3732382d31372e3338376105208a01527f2d342e36353920322e3037312d372e3732385a6d2d36342e363736203131302e6105408a01527f30312033332e3930352d3132362e3533372d31392e3331382d352e3137362d336105608a01527f332e393036203132362e3533362031392e33313920352e3137375a222066696c6105808a01527f6c3d2223363134303545222f3e3c7061746820643d226d3239302e32323520316105a08a01527f392e3131352d362e3938382032362e30382d33342e3737332d392e33313720366105c08a01527f2e3938382d32362e30382033342e37373320392e3331375a222066696c6c3d226105e08a01527f23414338453443222f3e3c7061746820643d226d3235342e3132312034352e366106008a01527f37362031392e33313820352e3137362d33332e393035203132362e3533372d316106208a01527f392e3331392d352e3137372033332e3930362d3132362e3533365a222066696c6106408a015262361e9160e91b6106608a0152610e176121ae6106638b01836114ab565b7f222f3e3c7061746820643d226d3231382e313435203137392e39342031392e3381527f313820352e3137362d32392e373634203131312e3038312d31392e3331392d3560208201527f2e3137362032392e3736352d3131312e3038315a222066696c6c3d222341413860408201527f423438222f3e3c7061746820643d226d3431372e3530312038312e3137312d3460608201527f392e3236332d31332e322d322e303720372e3732382d32362e30382d362e393860808201527f382d322e30373120372e3732372d31362e34322d342e342d322e30373120372e60a08201527f3732382d31372e3338372d342e36353920322e3037312d372e3732382d32352e60c08201527f3131342d362e3732392d32392e373634203131312e30383220382e363933203260e08201527f2e3332392d322e30373120372e3732382032352e31313520362e37323920322e6101008201527f30372d372e3732382032342e31343820362e34373120322e3037312d372e37326101208201527f382031372e33383620342e36353920322e3037312d372e3732372033322e38346101408201527f3120382e382d322e303720372e3732372031372e33383720342e3635392d322e6101608201527f30373120372e3732372032342e31343820362e34373120342e3635392d31372e6101808201527f3338372d372e3732372d322e30373120382e3739392d33322e3834312d372e376101a08201527f32372d322e30373120362e3938382d32362e303820372e37323720322e3037316101c08201527f20342e3931382d31382e33353320372e37323720322e30373120322e3037312d6101e08201527f372e3732372031302e36323520322e38343720322e33332d382e3639342d382e6102008201527f3639342d322e33323920322e3037312d372e3732384c3431352e34332038382e610220820152751cb61917181b98969b971b991c2d11103334b6361e9160511b6102408201526102560190565b7f222f3e3c74657874207472616e73666f726d3d22726f74617465283135202d3181527f35372e32313420313237322e31363729222066696c6c3d22236666662220786d60208201527f6c3a73706163653d22707265736572766522207374796c653d2277686974652d60408201527f73706163653a7072652220666f6e742d66616d696c793d22436f75726965722060608201527f4e65772220666f6e742d73697a653d2238302220666f6e742d7765696768743d60808201527f22626f6c642220746578742d616e63686f723d226d6964646c65223e0000000060a082015260bc0190565b7f3c747370616e20783d2232302220793d2236322e353738223e00000000000000815260190190565b671e17ba39b830b71f60c11b815260080190565b7f3c2f746578743e3c7061746820643d224d3134372e393236203137376838763181527f3668387631366838763868387631376838763136683876313668387631356838602082018190527f763968387631366838763136683876386838763137683876313668387638682d60408301527f387638682d387638682d31367638682d387638682d31367638682d387638682d60608301527f31367638682d387638682d31367638682d3234762d38682d3136762d38682d3860808301527f762d38682d3136762d38682d38762d38682d3136762d38682d38762d38682d3160a08301527f36762d38682d38762d38682d38762d386838762d31366838762d31376838762d60c08301527f386838762d31366838762d31366838762d396838762d31356838762d3136683860e08301527f762d31366838762d31376838762d386838762d31366838762d31366838762d316101008301527f3668387631365a222066696c6c3d2223463241304542222f3e3c7061746820646101208301527f3d224d32372e39323620333935763868387638683876313668387638683876386101408301527f68387631366838763968387631366838763868387631366838763868387631366101608301527f68387638683876313668387631336838762d31336838762d31366838762d38686101808301527f38762d31366838762d386838762d31366838762d386838762d31366838762d396101a08301527f6838762d31366838762d386838762d386838762d31366838762d386838762d386101c08301527f682d387638682d31367638682d387638682d31367638682d387638682d3136766101e08301527f38682d387638682d31367638682d387639682d3234762d39682d38762d38682d6102008301527f3136762d38682d38762d38682d3136762d38682d38762d38682d3136762d38686102208301527f2d38762d38682d3136762d38682d385a222066696c6c3d2223463241304542226102408301527f2f3e3c706174682066696c6c2d72756c653d226576656e6f64642220636c69706102608301527f2d72756c653d226576656e6f64642220643d224d3134372e39323620323636686102808301527f38763136683876313668387638683136762d3868387634396833327638682d386102a08301527f763136682d38762d3136682d32347638682d31367638682d387638682d38762d6102c08301527f3431682d38762d3136683136762d3136682d38762d3136682d38762d3136682d6102e08301527f38763136682d38763136682d38763136683136763136682d38763431682d38766103008301527f2d38682d38762d38682d3136762d38682d3234763136682d38762d3136682d386103208301527f762d38683332762d343968387638683136762d386838762d31366838762d31366103408301527f6838762d38683876385a6d2d3430203831682d38762d333368387638683876386103608301527f6838763235682d3136762d385a6d37322d33336838763333682d387638682d316103808301527f36762d32356838762d386838762d385a222066696c6c3d2223363134303545226103a08301527f2f3e3c7061746820643d224d39392e39323620333935762d38682d38762d38686103c08301527f2d38762d38682d38763136683876386831365a4d3131352e39323620343033686103e08301527f3234762d38682d38762d3136683876386838762d386838763136682d387638686104008301527f32347638682d3536762d385a4d3138372e393236203339357638682d3136762d6104208301527f386831365a4d3138372e39323620333935683136762d386838762d3136682d386104408301527f7638682d387638682d3876385a222066696c6c3d2223363134303545222f3e3c6104608301527f7061746820643d224d3131352e39323620343033762d38682d313676386831366104808301527f5a4d3133392e393236203332326838762d38682d3876385a222066696c6c3d226104a08301527f23363134303545222f3e3c706174682066696c6c2d72756c653d226576656e6f6104c08301527f64642220636c69702d72756c653d226576656e6f64642220643d224d3132372e6104e08301527f39323620343437762d38682d3136762d38682d38762d38682d3136762d38682d6105008301527f38762d38682d3136762d38682d38762d38682d3136762d38682d38762d38682d6105208301527f38762d31366838762d31366838762d31376838762d386838762d31366838762d6105408301527f31366838762d396838762d31356838762d31366838762d31366838762d3137686105608301527f38762d386838762d31366838762d31366838762d3136683136763136683876316105808301526105a08201527f76396838763136683876313668387638683876313768387631366838763136686105c08201527f2d387638682d387638682d31367638682d387638682d31367638682d387638686105e08201527f2d31367638682d3876386838762d38683136762d386838762d38683136762d386106008201527f6838762d38683136762d38683136763136682d387638682d38763136682d38766106208201527f38682d387638682d38763136682d387639682d38763136682d387638682d38766106408201527f3136682d387638682d38763136682d387638682d38763136682d38763133682d6106608201527f3136762d3133682d38762d3136682d38762d38682d38762d3136682d38762d386106808201527f682d38762d3136682d38762d38682d38762d3136682d38762d39682d38762d316106a08201527f36682d38762d38682d38762d38682d38762d3136682d38762d38682d38762d316106c08201527f36683136763868313676386838763868313676386838763868313676386838766106e08201527f386831365a6d32302d32383676313668387631366838763136683876386838766107008201527f31376838763136683876313668387631356838763968387631366838763136686107208201527f3876386838763137683876313668387638682d387638682d387638682d3136766107408201527f38682d387638682d31367638682d387638682d31367638682d387638682d31366107608201527f7638682d3234762d38682d3136762d38682d38762d38682d3136762d38682d386107808201527f762d38682d3136762d38682d38762d38682d3136762d38682d38762d38682d386107a08201527f762d386838762d31366838762d31376838762d386838762d31366838762d31366107c08201527f6838762d396838762d31356838762d31366838762d31366838762d31376838766107e08201527f2d386838762d31366838762d31366838762d313668385a6d313220323836762d6108008201527f386831367638682d31365a6d2d333220306833327638682d387639682d3136766108208201527f2d39682d38762d385a6d313220313232762d3133682d38762d3136682d38762d6108408201527f38682d38762d3136682d38762d38682d38762d3136682d38762d38682d38762d6108608201527f3136682d38762d39682d38762d3136682d38762d38682d38762d38682d38762d6108808201527f3136682d38762d386831367638683876386831367638683876386831367638686108a08201527f387638683136763868387639683234762d396838762d38683136762d386838766108c08201527f2d38683136762d386838762d38683136762d386838762d386831367638682d386108e08201527f763136682d387638682d387638682d38763136682d387639682d38763136682d6109008201527f387638682d38763136682d387638682d38763136682d387638682d38763136686109208201527f2d38763133682d385a6d3131322d313636762d3868387638682d385a6d2d32316109408201527f362030682d38762d38683876385a222066696c6c3d2223363134303545222f3e6109608201527f3c7061746820643d224d31332e373031203335352e3431362030203334372e366109808201527f34386c362e3635382d31312e37343420312e39353720312e313120312e31312d6109a08201527f312e39353820332e39313520322e32322d312e313120312e39353720312e39356109c08201527f3720312e313120312e31312d312e39353820332e39313520322e32322d312e316109e08201527f3120312e39353720312e39353720312e31312d362e3635382031312e3734345a610a008201527f6d2d352e36312d382e33353420332e33332d352e3837322d332e3931352d322e610a208201527f3231392d332e333320352e38373220332e39313520322e3231395a6d352e3837610a408201527f3220332e33323920332e33332d352e3837322d332e3931352d322e3231392d33610a608201527f2e333320352e38373220332e39313520322e3231395a4d32332e383132203333610a808201527f372e3538326c2d312e3935382d312e31312d312e313120312e3935382d372e38610aa08201527f32392d342e34333920322e32322d332e39313520372e38323920342e34333920610ac08201527f332e3332392d352e3837322d372e38332d342e34333920322e32322d332e3931610ae08201527f3420392e37383720352e3534382d362e3635382031312e3734345a4d32322e30610b008201527f3535203331332e3330386c2d312e3935382d312e313120322e32322d332e3931610b208201527f3420312e39353720312e3130392d322e323220332e3931355a6d392e35323420610b408201527f31302e3537332d312e3935372d312e313120322e32322d332e3931352d352e38610b608201527f37332d332e3332392d312e313120312e3935382d312e3935372d312e31312033610b808201527f2e33332d352e38373220372e38323820342e34333920322e32322d332e393135610ba08201527f20312e39353720312e31312d362e3635382031312e3734345a4d34302e343536610bc08201527f203330382e3232326c2d312e3935372d312e31312d312e313120312e3935382d610be08201527f352e3837322d332e33323920312e31312d312e3935382d312e3935372d312e31610c008201527f303920342e3433382d372e38332d332e3931342d322e32313920322e32322d33610c208201527f2e3931352031332e3720372e3736382d362e3635372031312e3734345a6d2d2e610c408201527f3834372d332e30363720332e3332392d352e3837322d352e3837322d332e3332610c608201527f392d332e333320352e38373220352e38373320332e3332395a4d34382e353332610c808201527f203239332e3937376c2d312e3935372d312e31303920322e32322d332e393135610ca08201527f2d392e3738382d352e3534382d312e313120312e3935372d312e3935362d312e610cc08201527f313120332e3332382d352e3837322031312e37343520362e36353820322e3231610ce08201527f392d332e39313420312e39353720312e3130392d362e3635382031312e373434610d008201527f5a4d35382e343538203237362e34376c2d312e3935382d312e31312d312e3131610d208201527f20312e3935372d312e3935372d312e3130392d312e313120312e3935372d352e610d408201527f3837312d332e33323920312e31312d312e3935372d312e3935382d312e313120610d608201527f312e31312d312e3935372d312e3935382d312e313120352e3534392d392e3738610d808201527f3620312e39353720312e3130392d342e34333920372e383320312e3935382031610da08201527f2e3130392d312e313120312e39353820352e38373220332e33323820312e3131610dc08201527f2d312e39353720312e39353720312e313120322e32322d332e3931352d332e39610de08201527f31352d322e3231392d312e313120312e3935372d312e3935372d312e31303920610e008201527f332e3332392d352e38373220372e38323920342e3433382d352e35343820392e610e208201527f3738375a4d36362e343732203236322e3333346c2d312e3935372d312e31312d610e408201527f312e313120312e3935372d372e38332d342e34333820322e32322d332e393135610e608201527f20372e383320342e34333920332e3332382d352e3837322d372e38332d342e34610e808201527f333920322e32322d332e39313520392e37383720352e3534392d362e36353820610ea08201527f31312e3734345a4d36342e383338203233372e3834326c2d312e3935372d312e610ec08201527f313120322e32322d332e39313420312e39353720312e3130392d322e32322033610ee08201527f2e3931355a6d392e3532352031302e3537332d312e3935372d312e313120322e610f008201527f3231392d332e3931352d352e3837322d332e3332392d312e313120312e393538610f208201527f2d312e3935372d312e313120332e3332392d352e38373220372e383320342e34610f408201527f333920322e3231392d332e39313520312e39353720312e31312d362e36353820610f608201527f31312e3734345a4d38332e3234203233322e3735366c2d312e3935372d312e31610f808201527f312d312e313120312e3935382d352e3837322d332e33323920312e31312d312e610fa08201527f3935382d312e3935372d312e31303920342e3433382d372e38332d332e393135610fc08201527f2d322e32313920322e32322d332e3931352031332e37303120372e3736382d36610fe08201527f2e3635382031312e3734345a6d2d2e3834382d332e30363720332e33332d352e6110008201527f3837322d352e3837332d332e3332392d332e33323920352e38373220352e38376110208201527f3220332e3332395a4d39312e313331203231382e3833376c2d312e3935372d316110408201527f2e31303920322e3231392d332e3931352d392e3738372d352e3534382d312e316110608201527f3120312e3935372d312e3935372d312e313120332e33332d352e3837322031316110808201527f2e37343320362e36353820322e32322d332e39313420312e39353720312e31306110a08201527f392d362e3635382031312e3734345a4d3130342e363934203139342e3931346c6110c08201527f2d312e3935382d312e3130392d312e31303920312e3935372d312e3935382d316110e08201527f2e31312d312e313120312e3935382d352e3837312d332e33323920312e31312d6111008201527f312e3935382d312e3935382d312e31303920312e31312d312e3935382d312e396111208201527f35382d312e31303920342e3433392d372e383320312e39353720312e313120316111408201527f2e31312d312e39353720312e39353720312e3130392d322e323220332e3931356111608201527f2d312e3935362d312e31312d322e323220332e39313520312e39353820312e316111808201527f312d312e313120312e39353720352e38373220332e33323920312e31312d312e6111a08201527f39353720312e39353720312e31303920322e3231392d332e3931342d312e39356111c08201527f372d312e313120322e3231392d332e39313520312e39353820312e31312d312e6111e08201527f313120312e39353720312e39353720312e31312d342e34333820372e3832395a6112008201527f4d3131332e353731203137392e3235366c2d31312e3734342d362e3635382d326112208201527f2e323220332e3931342d312e3935372d312e31303920362e3635382d31312e376112408201527f343420312e39353820312e3130392d322e323220332e3931352031312e3734346112608201527f20362e3635382d322e32313920332e3931355a4d3131392e313139203136392e6112808201527f3436396c2d31332e3730312d372e3736384c3131332e313835203134386c312e6112a08201527f39353820312e31312d352e35343920392e37383620332e39313520322e3232206112c08201527f342e3433392d372e383320312e39353720312e31312d342e34333920372e38326112e08201527f3920352e38373220332e3332392d322e32313920332e3931355a222066696c6c611300820152711e91119b189a181aa291179f1e17b9bb339f60711b6113208201526113320190565b61087f565b90613d0382610c53565b613d1060405191826108ab565b8281528092613d21601f1991610c53565b0190602036910137565b8060009172184f03e93ff9f4daa797ed6e38ed64bf6a1f0160401b821015613e60575b806d04ee2d6d415b85acef8100000000600a921015613e44575b662386f26fc10000811015613e2f575b6305f5e100811015613e1d575b612710811015613e0d575b6064811015613dfe575b1015613df3575b613dde6021613db260018501613cf9565b938401015b60001901916f181899199a1a9b1b9c1cb0b131b232b360811b600a82061a8353600a900490565b8015613dee57613dde9091613db7565b505090565b600190910190613da1565b60029060649004930192613d9a565b6004906127109004930192613d90565b6008906305f5e1009004930192613d85565b601090662386f26fc100009004930192613d78565b6020906d04ee2d6d415b85acef81000000009004930192613d68565b506040915072184f03e93ff9f4daa797ed6e38ed64bf6a1f0160401b8104613d4e565b60405190613e926060836108ab565b604082527f6768696a6b6c6d6e6f707172737475767778797a303132333435363738392b2f6040837f4142434445464748494a4b4c4d4e4f505152535455565758595a61626364656660208201520152565b90600282018092116115d157565b600281901b91906001600160fe1b038116036115d157565b90815115613fea57613f1a613e83565b91613f3f613f3a613f35613f2e8451613ee4565b6003900490565b613ef2565b613cf9565b9060208201908081518201956020870190815192600083525b888110613f9c5750506003939495965052510680600114613f8957600214613f7e575090565b603d90600019015390565b50603d9081600019820153600119015390565b600360049199969901986001603f8b5182828260121c16870101518453828282600c1c16870101518385015382828260061c1687010151600285015316840101516003820153019497613f58565b90506102da611422565b614008906000526004602052604060002090565b80546001600160a01b0319169055565b90604051906140286020836108ab565b600082526001600160a01b038316801561140c576000828152600260205260408120546001600160a01b031680151592909184919083907fddf252ad1be2c89b69c2b068fc378daa952ba7f163c4a11628f55a4df523b3ef90866140e4575b6001600160a01b038a166000908152600360205260409020600181540190556140be8a6104a8876000526002602052604060002090565b80a4506140ce5761091f92611826565b6339e3563760e11b600052600060045260246000fd5b6140ed85613ff4565b6001600160a01b03831660009081526003602052604090208054600019019055614087565b9091906141306001600160a01b038416801515908161417c57501590565b61413957505050565b6001600160a01b031661415a57637e27328960e01b60005260045260246000fd5b63177e802f60e01b6000526001600160a01b0390911660045260245260446000fd5b6001600160a01b038416808214925082156141bd575b50811561419e57501590565b6000858152600460205260409020546001600160a01b03161490501590565b909150600052600560205260ff6141ea8660406000209060018060a01b0316600052602052604060002090565b5416903861419256fea26469706673582212207bd8b1b390b84bd83f722b30571ffc1861c534ee84d62159e6f20d0479be5da764736f6c634300081a0033","linkReferences":{}},"methodIdentifiers":{"addAllowedMinter(address)":"488603df","addAllowedMinterMultiple(address[])":"b76ba2e4","allowedMinters(address)":"423afa66","approve(address,uint256)":"095ea7b3","balanceOf(address)":"70a08231","disable()":"2f2770db","enable()":"a3907d71","enabled()":"238dafe0","enabledAt()":"8f7e9c04","flagColors(uint256)":"80960a4d","getApproved(uint256)":"081812fc","hasMinted(address,uint256)":"f8f1147d","isApprovedForAll(address,address)":"e985e9c5","mint(address,uint256)":"40c10f19","name()":"06fdde03","onERC721Received(address,address,uint256,bytes)":"150b7a02","owner()":"8da5cb5b","ownerOf(uint256)":"6352211e","removeAllowedMinter(address)":"bad39b96","renounceOwnership()":"715018a6","safeTransferFrom(address,address,uint256)":"42842e0e","safeTransferFrom(address,address,uint256,bytes)":"b88d4fde","setApprovalForAll(address,bool)":"a22cb465","supportsInterface(bytes4)":"01ffc9a7","symbol()":"95d89b41","tokenIdCounter()":"98bdf6f5","tokenIdToChallengeId(uint256)":"e320a05b","tokenURI(uint256)":"c87b56dd","transferFrom(address,address,uint256)":"23b872dd","transferOwnership(address)":"f2fde38b"},"id":13}