{"abi":[{"type":"constructor","inputs":[{"name":"_nftContract","type":"address","internalType":"address"}],"stateMutability":"nonpayable"},{"type":"function","name":"justCallMe","inputs":[],"outputs":[],"stateMutability":"nonpayable"},{"type":"function","name":"nftContract","inputs":[],"outputs":[{"name":"","type":"address","internalType":"address"}],"stateMutability":"view"}],"bytecode":{"object":"0x608034607057601f6101ed38819003918201601f19168301916001600160401b03831184841017607557808492602094604052833981010312607057516001600160a01b03811690819003607057600080546001600160a01b031916919091179055604051610161908161008c8239f35b600080fd5b634e487b7160e01b600052604160045260246000fdfe608080604052600436101561001357600080fd5b600090813560e01c90816382cb05c614610060575063d56d229d1461003757600080fd5b3461005d578060031936011261005d57546040516001600160a01b039091168152602090f35b80fd5b9050346101275781600319360112610127573233146100f75750805481906001600160a01b0316803b156100f45781906044604051809481936340c10f1960e01b8352326004840152600260248401525af180156100e9576100c0575080f35b67ffffffffffffffff81116100d55760405280f35b634e487b7160e01b82526041600452602482fd5b6040513d84823e3d90fd5b50fd5b62461bcd60e51b815260206004820152600b60248201526a139bdd08185b1b1bddd95960aa1b6044820152606490fd5b5080fdfea2646970667358221220c81c5a0f6d86852ee8e42c9cb057c266c6eda71d10ace800bb086c5127d5f5db64736f6c634300081a0033","linkReferences":{}},"methodIdentifiers":{"justCallMe()":"82cb05c6","nftContract()":"d56d229d"},"id":3}