{"abi":[{"type":"constructor","inputs":[{"name":"_nftContract","type":"address","internalType":"address"}],"stateMutability":"nonpayable"},{"type":"function","name":"count","inputs":[],"outputs":[{"name":"","type":"uint256","internalType":"uint256"}],"stateMutability":"view"},{"type":"function","name":"mintFlag","inputs":[{"name":"code","type":"uint256","internalType":"uint256"}],"outputs":[],"stateMutability":"nonpayable"},{"type":"function","name":"nftContract","inputs":[],"outputs":[{"name":"","type":"address","internalType":"address"}],"stateMutability":"view"}],"bytecode":{"object":"0x608034607057601f61060e38819003918201601f19168301916001600160401b03831184841017607557808492602094604052833981010312607057516001600160a01b03811690819003607057600080546001600160a01b031916919091179055604051610582908161008c8239f35b600080fd5b634e487b7160e01b600052604160045260246000fdfe608080604052600436101561001357600080fd5b600090813560e01c90816306661abd146104b55750806323df6bd61461006b5763d56d229d1461004257600080fd5b34610068578060031936011261006857546040516001600160a01b039091168152602090f35b80fd5b50346100685760203660031901126100685760015460081b60043503610483576040516306fdde0360e01b81528181600481335afa80156104785782906103d5575b7f49166efdf3c8787fa7930087d925ab312b232cfc4fc1785f46d4d2269635a40991506040516100fe602082816100ed8183019687815193849201610529565b81010301601f1981018352826104d5565b519020036103a3575a6202e630811180610397575b819082849372184f03e93ff9f4daa797ed6e38ed64bf6a1f0160401b811015610371575b50806d04ee2d6d415b85acef8100000000600a921015610356575b662386f26fc10000811015610342575b6305f5e100811015610331575b612710811015610322575b6064811015610314575b101561030a575b6001830191600a60216101b66101a08661050d565b956101ae60405197886104d5565b80875261050d565b602086019690601f19013688378501015b60001901916f181899199a1a9b1b9c1cb0b131b232b360811b8282061a83530480156101f657600a90916101c7565b5050610238602b604051809561022760208301966a02bb937b7339033b0b99d160ad1b885251809285850190610529565b81010301601f1981018552846104d5565b156102cd578254839081906001600160a01b0316803b156102ca578180916044604051809581936340c10f1960e01b8352326004840152600660248401525af180156102bd576102ad575b5050600154600181018091116102995760015580f35b634e487b7160e01b82526011600452602482fd5b6102b6916104d5565b8181610283565b50604051903d90823e3d90fd5b50fd5b6102fc9160449160405193849262461bcd60e51b84526020600485015251809281602486015285850190610529565b601f01601f19168101030190fd5b916001019161018b565b606460029104940193610184565b6127106004910494019361017a565b6305f5e1006008910494019361016f565b662386f26fc1000060109104940193610162565b6d04ee2d6d415b85acef810000000060209104940193610152565b6040945072184f03e93ff9f4daa797ed6e38ed64bf6a1f0160401b90049050600a610137565b5062030d408110610113565b60405162461bcd60e51b815260206004820152600a60248201526957726f6e67206e616d6560b01b6044820152606490fd5b503d8083833e6103e581836104d5565b8101906020818303126104745780519067ffffffffffffffff821161047057019080601f830112156104745781519161041d8361050d565b9161042b60405193846104d5565b83835260208483010111610470577f49166efdf3c8787fa7930087d925ab312b232cfc4fc1785f46d4d2269635a4099261046b9160208085019101610529565b6100ad565b8380fd5b8280fd5b6040513d84823e3d90fd5b60405162461bcd60e51b815260206004820152600a60248201526957726f6e6720636f646560b01b6044820152606490fd5b9050346104d157816003193601126104d1576020906001548152f35b5080fd5b90601f8019910116810190811067ffffffffffffffff8211176104f757604052565b634e487b7160e01b600052604160045260246000fd5b67ffffffffffffffff81116104f757601f01601f191660200190565b60005b83811061053c5750506000910152565b818101518382015260200161052c56fea2646970667358221220650f3af34755f2a1b33670b348192fae36faac7e364b3977599af1250c7a1d4f64736f6c634300081a0033","linkReferences":{}},"methodIdentifiers":{"count()":"06661abd","mintFlag(uint256)":"23df6bd6","nftContract()":"d56d229d"},"id":7}