{"abi":[{"type":"constructor","inputs":[{"name":"_nftContract","type":"address","internalType":"address"}],"stateMutability":"nonpayable"},{"type":"function","name":"POINTS_TO_MINT","inputs":[],"outputs":[{"name":"","type":"uint256","internalType":"uint256"}],"stateMutability":"view"},{"type":"function","name":"claimPoints","inputs":[],"outputs":[],"stateMutability":"nonpayable"},{"type":"function","name":"mintFlag","inputs":[],"outputs":[],"stateMutability":"nonpayable"},{"type":"function","name":"nftContract","inputs":[],"outputs":[{"name":"","type":"address","internalType":"address"}],"stateMutability":"view"},{"type":"function","name":"points","inputs":[{"name":"","type":"address","internalType":"address"}],"outputs":[{"name":"","type":"uint256","internalType":"uint256"}],"stateMutability":"view"},{"type":"function","name":"resetPoints","inputs":[],"outputs":[],"stateMutability":"nonpayable"}],"bytecode":{"object":"0x608034607057601f61040e38819003918201601f19168301916001600160401b03831184841017607557808492602094604052833981010312607057516001600160a01b03811690819003607057600080546001600160a01b031916919091179055604051610382908161008c8239f35b600080fd5b634e487b7160e01b600052604160045260246000fdfe608080604052600436101561001357600080fd5b600090813560e01c90816304d092c7146101fd575080631e4696ae146101db578063358b81661461019a578063bf3d72411461017e578063d56d229d146101575763e00d023f1461006357600080fd5b346101545780600319360112610154573281526001602052600a60408220541061011b5732815260016020526040812080546009198101919082116101075755805481906001600160a01b0316803b15610104578180916044604051809581936340c10f1960e01b8352326004840152600560248401525af180156100f7576100e95780f35b6100f291610314565b388180f35b50604051903d90823e3d90fd5b50fd5b634e487b7160e01b83526011600452602483fd5b60405162461bcd60e51b81526020600482015260116024820152704e6f7420656e6f75676820706f696e747360781b6044820152606490fd5b80fd5b5034610154578060031936011261015457546040516001600160a01b039091168152602090f35b50346101545780600319360112610154576020604051600a8152f35b5034610154576020366003190112610154576004356001600160a01b038116908190036101d7578160409160209352600183522054604051908152f35b5080fd5b5034610154578060031936011261015457328152600160205280604081205580f35b9050346101d757816003193601126101d757328252600160205260408220546102d957508080808080335af13d156102d4573d67ffffffffffffffff81116102c05760405190610257601f8201601f191660200183610314565b81528260203d92013e5b156102845732815260016020526040812080549060018201809211610107575580f35b60405162461bcd60e51b8152602060048201526014602482015273115e1d195c9b985b0818d85b1b0819985a5b195960621b6044820152606490fd5b634e487b7160e01b83526041600452602483fd5b610261565b62461bcd60e51b8152602060048201526016602482015275416c726561647920636c61696d656420706f696e747360501b6044820152606490fd5b90601f8019910116810190811067ffffffffffffffff82111761033657604052565b634e487b7160e01b600052604160045260246000fdfea26469706673582212200ce6da4b40bec7926f776905e3daa3b16a479bead335824e8a19dbb83da15c7264736f6c634300081a0033","linkReferences":{}},"methodIdentifiers":{"POINTS_TO_MINT()":"bf3d7241","claimPoints()":"04d092c7","mintFlag()":"e00d023f","nftContract()":"d56d229d","points(address)":"358b8166","resetPoints()":"1e4696ae"},"id":6}