{"abi":[{"type":"constructor","inputs":[{"name":"_nftContract","type":"address","internalType":"address"}],"stateMutability":"nonpayable"},{"type":"function","name":"mintFlag","inputs":[],"outputs":[],"stateMutability":"nonpayable"},{"type":"function","name":"nftContract","inputs":[],"outputs":[{"name":"","type":"address","internalType":"address"}],"stateMutability":"view"}],"bytecode":{"object":"0x608034607057601f6102a738819003918201601f19168301916001600160401b03831184841017607557808492602094604052833981010312607057516001600160a01b03811690819003607057600080546001600160a01b03191691909117905560405161021b908161008c8239f35b600080fd5b634e487b7160e01b600052604160045260246000fdfe608080604052600436101561001357600080fd5b600090813560e01c908163d56d229d1461014b575063e00d023f1461003757600080fd5b3461014857806003193601126101485761005332331415610173565b6040513360601b60208201526014815261006e6034826101ad565b805160131015610134576033015160f81c6040513260601b60208201526014815261009a6034826101ad565b805160131015610120579060158060336100bc94015160f81c16911614610173565b805481906001600160a01b0316803b1561011d578180916044604051809581936340c10f1960e01b8352326004840152600b60248401525af18015610110576101025780f35b61010b916101ad565b388180f35b50604051903d90823e3d90fd5b50fd5b634e487b7160e01b83526032600452602483fd5b634e487b7160e01b82526032600452602482fd5b80fd5b90503461016f578160031936011261016f5790546001600160a01b03168152602090f35b5080fd5b1561017a57565b60405162461bcd60e51b815260206004820152600b60248201526a139bdd08185b1b1bddd95960aa1b6044820152606490fd5b90601f8019910116810190811067ffffffffffffffff8211176101cf57604052565b634e487b7160e01b600052604160045260246000fdfea2646970667358221220563ae84f8a3a5efaa2ed1a863151c4cf5047f39d688c4f0ae1e677b1141874aa64736f6c634300081a0033","linkReferences":{}},"methodIdentifiers":{"mintFlag()":"e00d023f","nftContract()":"d56d229d"},"id":1}