{"abi":[{"type":"constructor","inputs":[{"name":"_nftContract","type":"address","internalType":"address"},{"name":"_password","type":"bytes32","internalType":"bytes32"}],"stateMutability":"nonpayable"},{"type":"function","name":"mintFlag","inputs":[{"name":"_password","type":"bytes32","internalType":"bytes32"}],"outputs":[],"stateMutability":"nonpayable"},{"type":"function","name":"nftContract","inputs":[],"outputs":[{"name":"","type":"address","internalType":"address"}],"stateMutability":"view"}],"bytecode":{"object":"0x608034607857601f61027338819003918201601f19168301916001600160401b03831184841017607d57808492604094855283398101031260785780516001600160a01b038116919082900360785760200151600080546001600160a01b0319169092179091556001556040516101df90816100948239f35b600080fd5b634e487b7160e01b600052604160045260246000fdfe608080604052600436101561001357600080fd5b600090813560e01c908163d56d229d14610181575063dfa0c2d61461003757600080fd5b3461017e57602036600319011261017e57600254601f811680601f0390601f821161016a578160031b91820460081490601f1417156101565760ff600435911b196001541603610120576001810180911161010c57600255805481906001600160a01b0316803b156101095781906044604051809481936340c10f1960e01b8352336004840152600960248401525af180156100fe576100d5575080f35b67ffffffffffffffff81116100ea5760405280f35b634e487b7160e01b82526041600452602482fd5b6040513d84823e3d90fd5b50fd5b634e487b7160e01b82526011600452602482fd5b60405162461bcd60e51b815260206004820152600e60248201526d15dc9bdb99c81c185cdcdddbdc9960921b6044820152606490fd5b634e487b7160e01b83526011600452602483fd5b634e487b7160e01b84526011600452602484fd5b80fd5b9050346101a557816003193601126101a55790546001600160a01b03168152602090f35b5080fdfea2646970667358221220f8901fe3b98230bc4894a85737f52683d13059cb4f20a4df77cf20b80f3b7f6064736f6c634300081a0033","linkReferences":{}},"methodIdentifiers":{"mintFlag(bytes32)":"dfa0c2d6","nftContract()":"d56d229d"},"id":11}