{"abi":[{"type":"constructor","inputs":[{"name":"_nftContract","type":"address","internalType":"address"},{"name":"_delegateAddress","type":"address","internalType":"address"},{"name":"_owner","type":"address","internalType":"address"}],"stateMutability":"nonpayable"},{"type":"fallback","stateMutability":"nonpayable"},{"type":"function","name":"mintFlag","inputs":[],"outputs":[],"stateMutability":"nonpayable"},{"type":"function","name":"nftContract","inputs":[],"outputs":[{"name":"","type":"address","internalType":"address"}],"stateMutability":"view"},{"type":"function","name":"owner","inputs":[],"outputs":[{"name":"","type":"address","internalType":"address"}],"stateMutability":"view"}],"bytecode":{"object":"0x60803460a357601f6102e138819003918201601f19168301916001600160401b0383118484101760a85780849260609460405283398101031260a35760428160be565b906057604060516020840160be565b920160be565b600280546001600160a01b039485166001600160a01b03199182161790915560018054938516938216939093179092556000805491909316911617905560405161020f90816100d28239f35b600080fd5b634e487b7160e01b600052604160045260246000fd5b51906001600160a01b038216820360a35756fe6080806040526004361015610081575b503461007c5760008060018060a01b0360015416604051368382378036810184815203915af4503d15610064573d67ffffffffffffffff8111610066576040519061006490601f01601f1916602001826101b7565b005b634e487b7160e01b600052604160045260246000fd5b600080fd5b600090813560e01c9081638da5cb5b1461018f57508063d56d229d146101665763e00d023f0361000f573461016357806003193601126101635780546001600160a01b031633036101315760025481906001600160a01b0316803b1561012e578180916044604051809581936340c10f1960e01b8352336004840152600760248401525af18015610121576101135780f35b61011c916101b7565b388180f35b50604051903d90823e3d90fd5b50fd5b60405162461bcd60e51b815260206004820152600a60248201526927b7363c9037bbb732b960b11b6044820152606490fd5b80fd5b50346101635780600319360112610163576002546040516001600160a01b039091168152602090f35b9050346101b357816003193601126101b35790546001600160a01b03168152602090f35b5080fd5b90601f8019910116810190811067ffffffffffffffff8211176100665760405256fea26469706673582212200133fb397ecd0e02242b3087bcbd65b2c57ad35fa51c26d446ea8ec97c11082e64736f6c634300081a0033","linkReferences":{}},"methodIdentifiers":{"mintFlag()":"e00d023f","nftContract()":"d56d229d","owner()":"8da5cb5b"},"id":8}