{"abi":[{"type":"constructor","inputs":[{"name":"_nftContract","type":"address","internalType":"address"}],"stateMutability":"nonpayable"},{"type":"function","name":"mintFlag","inputs":[],"outputs":[],"stateMutability":"nonpayable"},{"type":"function","name":"nftContract","inputs":[],"outputs":[{"name":"","type":"address","internalType":"address"}],"stateMutability":"view"}],"bytecode":{"object":"0x608034607057601f61022638819003918201601f19168301916001600160401b03831184841017607557808492602094604052833981010312607057516001600160a01b03811690819003607057600080546001600160a01b03191691909117905560405161019a908161008c8239f35b600080fd5b634e487b7160e01b600052604160045260246000fdfe608080604052600436101561001357600080fd5b600090813560e01c908163d56d229d1461013c575063e00d023f1461003757600080fd5b3461013957806003193601126101395732331461010657333b6100d157805481906001600160a01b0316803b156100ce5781906044604051809481936340c10f1960e01b8352326004840152600360248401525af180156100c35761009a575080f35b67ffffffffffffffff81116100af5760405280f35b634e487b7160e01b82526041600452602482fd5b6040513d84823e3d90fd5b50fd5b60405162461bcd60e51b815260206004820152600d60248201526c53697a65206e6f74207a65726f60981b6044820152606490fd5b60405162461bcd60e51b815260206004820152600b60248201526a139bdd08185b1b1bddd95960aa1b6044820152606490fd5b80fd5b90503461016057816003193601126101605790546001600160a01b03168152602090f35b5080fdfea264697066735822122078c3d3ea49da6b7c0b11feb0125348aa7b54d9d84651b9bc6b166a81c743667064736f6c634300081a0033","linkReferences":{}},"methodIdentifiers":{"mintFlag()":"e00d023f","nftContract()":"d56d229d"},"id":4}